:100000000C9443000C94E7050C94E7050C94E70569
:100010000C94E7050C94E7050C949F050C94E705F8
:100020000C94E7050C94E7050C94E7050C94E705A0
:100030000C94E7050C94E7050C94E7050C94E70590
:100040000C94E7050C94E7050C94E7050C94E70580
:100050000C94E7050C94E7050C94E7050C94E70570
:100060000C94E7050C94E7050100010280010201F0
:1000700013000BDC0113011B80011B011D000BEDA4
:10008000011D0125800011241FBECFEFD8E0DEBF87
:10009000CDBFE8E6F0E040E017C0B591A5913591FD
:1000A0002591059107FD0CC095918591EF01F92FE0
:1000B000E82F05900D92A217B307D9F7FE0104C0EF
:1000C0001D92A217B307E1F7E538F40731F70E9454
:0A00D0008C050C94C505F894FFCFD1
:1000DA0068076C094C836A9074A07AC000806888AB
:0600EA0000846C8200811D
:0F00F00048656C6C6F20576F726C642E2E210068
:0700FF00286E756C6C2900EE
:06010600286E696C29005F
:10010C002F923F924F926F927F928F929F92AF92CB
:10011C00BF92CF92DF92EF92FF920F931F93CF93E8
:10012C00DF93CDB7DEB72E970FB6F894DEBF0FBEB8
:10013C00CDBF4C016B0138011A8219828FEF9FEFF2
:10014C009C838B831E821D8258874F833A87298715
:10015C00A12CB12CD6012D913D914C912A0D3B1D1A
:10016C00411DB7FC4A95F901849147FD80818111AD
:10017C0016C0F601208331834283F901849147FD37
:10018C008081853209F00FC21901442EFFEF2F1A1E
:10019C003F0A4F0AD6012D923D924C921BC08532DC
:1001AC0041F3B401082E000C990B0E94D6034FEFBB
:1001BC00A41AB40ACFCF2C32DCF02D3229F52981C8
:1001CC003A8121603A8329830196A11DF60180832F
:1001DC009183A283F60180819181A281FC012491FB
:1001EC00A7FD20812B3239F729813A812460EACF8F
:1001FC00203221F429813A812860E4CF233251F452
:10020C0029813A812061DECF203321F429813A8182
:10021C002260D8CFB701C6010E945C049E838D83F7
:10022C0097FF0BC029813A81F1E02F273A8329836C
:10023C009195819591099E838D8389819A8180FF07
:10024C0003C08D7F9A838983F60180819181A2817D
:10025C00FC012491A7FD20812E3261F40196A11D91
:10026C00F60180839183A283B701C6010E945C04CE
:10027C009C838B83C6010E94F202182FD6012C910D
:10028C0011968C91119712969C91E22FF82F8491D4
:10029C0097FD8081082E000C990B0E94D0058936A1
:1002AC0009F44AC084F4833609F419C134F4853254
:1002BC0009F445C18136E1F050C18436E9F1883644
:1002CC000CF4E9C04AC1803709F4B0C03CF48E3656
:1002DC0009F4D6C08F3609F46DC03FC1853709F4D7
:1002EC004AC0883709F485C0833709F036C10DC17F
:1002FC00612F70E0A701CE010B960E940000892BA4
:10030C0009F448C1F60180819181A2819C014A2F98
:10031C002F5F3F4F4F4F208331834283FC01249149
:10032C00A7FD2081AE01455F5F4FBE016F5F7F4F20
:10033C00C4010E9400002BC1612F70E0970141E0C5
:10034C0050E0CE010B960E940000892B09F422C1CB
:10035C00F60180819181A2810196A11D80839183F8
:10036C00A283AE01455F5F4FBE016F5F7F4FC4013B
:10037C000E9400000CC1612F70E0970140E050E03A
:10038C00CE010B960E940000892B09F403C1F601E3
:10039C0080819181A2810196A11D80839183A2838A
:1003AC00AE01455F5F4FBE016F5F7F4FC4010E947E
:1003BC000000EDC0612F70E0970140E050E0CE01ED
:1003CC000B960E940000892B09F4E4C0F601808191
:1003DC009181A2810196A11D80839183A283AE019C
:1003EC00455F5F4FBE016F5F7F4FC4010E940000ED
:1003FC00CEC0612F70E0970140E050E0CE010B962B
:10040C000E940000892B09F4C5C0F60180819181FE
:10041C00A2819C014A2F2F5F3F4F4F4F2083318386
:10042C004283FC012491A7FD208120C0970140E06C
:10043C0050E060EF70E0CE010B960E940000892B1B
:10044C0009F4A8C0F60180819181A2810196A11DB9
:10045C0080839183A2838B859C85892B31F400E06A
:10046C0010E026E031E040E08CC028E7AE01455FAB
:10047C005F4FBE016F5F7F4FC4010E94000087C0B9
:10048C00A501460D571D612F70E09701CE010B960B
:10049C000E9400007FC0612F70E0A701CE010B9677
:1004AC000E940000892B09F475C0F60180819181AE
:1004BC00A2819C014A2F2F5F3F4F4F4F20833183E6
:1004CC004283FC012491A7FD2081AE01455F5F4F63
:1004DC00BE016F5F7F4FC4010E94000058C01038EE
:1004EC0009F058C0F60180819181A2810196A11D6D
:1004FC0080839183A283D701ED91FC911197CF0159
:10050C0002968D939C93808126C0103809F042C0CE
:10051C00F60180819181A2810196A11D8083918336
:10052C00A283D701ED91FC911197CF0103968D9386
:10053C009C9320813181428100E010E022C0103870
:10054C0049F5F6012081318142812F5F3F4F4F4F9A
:10055C002083318342838B870EC085E28B87F60123
:10056C002082318242821A8219821E821D828FEF72
:10057C009FEF9C838B839E01255F3F4F40E801E0FA
:10058C0010E0BE016F5F7F4FC4010E941F048A0DF3
:10059C009B1D0AC0F60180819181A2810196A11D4B
:1005AC0080839183A283C5012E960FB6F894DEBF8B
:1005BC000FBECDBFDF91CF911F910F91FF90EF90A8
:1005CC00DF90CF90BF90AF909F908F907F906F9067
:0805DC004F903F902F9008950D
:1005E400CF92DF92EF92DC0190E0292F30E0220FCE
:1005F400331F6901032E000CEE086E2DA60146522E
:100604005F4F6F4F6A01E62EFA018491E7FC808107
:1006140081110DC02F5F3F4F032E000C440B265257
:100624003F4F4F4FF901849147FD808124C0CD9005
:10063400DD90EC901297F6014491E7FC408184131D
:1006440015C02F5F3F4F032E000C440B26523F4F23
:100654004F4FF901949147FD90815FEFC51AD50A78
:10066400E50ACD92DD92EC92129701C09F5F9B3018
:0E06740008F4BBCF892FEF90DF90CF90089550
:100682006F927F928F92AF92BF92CF92DF92EF9250
:10069200FF920F931F93CF93DF935C013A01862E53
:1006A200E901670181E0C822DD24E0FC03C02017D4
:1006B200310758F09E01682DA301C5010E949804DC
:1006C200C017D10710F0CE0118C07801EC1AFD0A4C
:1006D200E114F10449F0B50180E290E00E94D603F2
:1006E20081E0E81AF108F4CFCD2831F49E01682D9B
:1006F200A301C5010E949804C801DF91CF911F9107
:100702000F91FF90EF90DF90CF90BF90AF908F90BE
:060712007F906F90089536
:10071800A3E8B0E0E2E9F3E00C9414055C014901B8
:10072800CF57DF4F488359836A83C158D040C12CC3
:10073800D12CCF57DF4F2881C158D040CE57DF4F3B
:100748009881C258D040CD57DF4F8881C358D040D8
:10075800E22FF92F949187FD90819923E9F0740194
:10076800860120E830E0AE014F5F5F4FBE016F5752
:100778007F4FC5010E9486008C0D9D1D8C159D051F
:100788004CF48FE490E090930101809300018FEF87
:100798009FEF03C06C01CDCFC601CD57DF4FECE012
:0407A8000C94300578
:1007AC000F931F93CF93DF93DB012D913C91119706
:1007BC0030FF25C017964D915C91189715962D9189
:1007CC003C9116974217530778F41296ED91FC91D1
:1007DC001397808312962D913C9113972F5F3F4F67
:1007EC0013963C932E93129717962D913C91189734
:1007FC002F5F3F4F18963C932E93179715C01D965D
:10080C00ED91FC911E97309719F48FEF9FEF0CC070
:10081C008B01EC010995892BC1F7F8018781908533
:10082C00019690878783CE01DF91CF911F910F9115
:02083C0008951D
:10083E006F927F928F92CF92DF92EF92FF920F93F1
:10084E001F93CF93DF936C01FB013901842EC801F6
:10085E00C281D38104811581E080F180232B242B6A
:10086E0031F42FEF622E20E0722E20E0822E0097C0
:10087E0021F4882DB3010E947605D7FD04C0C81758
:10088E00D90708F4CE019C01682DA301C6010E9470
:10089E004103DF91CF911F910F91FF90EF90DF9069
:0A08AE00CF908F907F906F90089517
:1008B800DC012D913D914C911297F901849147FDEE
:1008C80080818A3221F080E090E07AE011C02F5FC9
:1008D8003F4F4F4F2D933D934C93DB01ED91FC918E
:1008E8001197CF0102968D939C93808191810895F1
:1008F8002D913D914C911297F901549147FD5081EA
:1009080050535A3080F4789FF001799FF00D1124EC
:10091800CF01850F911D2F5F3F4F4F4F2D933D9373
:080928004C931297E5CF0895EE
:100930006F927F928F92CF92DF92EF920F931F93DD
:10094000CF93DF938C016A01E62EE9013A01862EEE
:10095000620E731E811C37FD8A94C614D704E80406
:1009600079F0F6018491E7FC8081B801082E000C33
:10097000990B0E94D6038FEFC81AD80AE80AEDCF68
:10098000CE01DF91CF911F910F91EF90DF90CF902B
:080990008F907F906F90089595
:1009980083E090E09093C5008093C4001092C0005B
:1009A80088EF8093C10086E08093C20010922301F3
:1009B800109224011092220110922001109221011C
:1009C80010921F01E0911B01F0911C0182E091E05F
:0609D80091838083089565
:1009DE00209121012F5F277090911F019830E1F334
:1009EE00E22FF0E0ED5EFE4F8083209321010FB6E3
:1009FE00F8940F9280911F018F5F80931F010F90CB
:0E0A0E000FBEE1ECF0E08081806280830895ED
:100A1C002F923F924F925F926F927F928F929F9202
:100A2C00AF92BF92CF92DF92EF92FF920F931F93F0
:100A3C00CF93DF93CDB7DEB7CA1BDB0B0FB6F894A1
:080A4C00DEBF0FBECDBF09940F
:100A54002A88398848885F846E847D848C849B844A
:100A6400AA84B984C884DF80EE80FD800C811B8158
:100A7400AA81B981CE0FD11D0FB6F894DEBF0FBE87
:060A8400CDBFED01089555
:100A8A00A0E0B0E0EBE4F5E00C941E059E012B5FBC
:100A9A003F4FF9014191519161919F01E0911B01F1
:100AAA00F0911C01808191810E945E05E2E00C9424
:020ABA003A05FB
:100ABC00A2E0B0E0E4E6F5E00C941C058C013A836E
:100ACC0029839E012F5F3F4F0E948C03F8012081E8
:100ADC0024FF02C08FEF9FEF2296E4E00C943805C0
:100AEC00CF92DF92EF926B01E82EA82FCB01FC0185
:100AFC002491A7FD2081222319F00196A11DF7CF87
:0C0B0C008C199D09EF90DF90CF900895A8
:100B18000E94AF050F2EF0EFCF2EF0E0DF2EF0E0B1
:100B2800EF2EF02DEF92DF92CF920E9445050F90A5
:060B38000F900F90F7CFB3
:100B3E008F938FB78F93EF93FF93E0E6F0E0808172
:100B4E008F778083FF91EF918F918FBF8F91189543
:100B5E000E94BA050E94D805109260000E94E3051B
:060B6E000E94CC04089572
:100B740014B817B882E08AB915B818B81BB813B8F6
:060B840016B819B808952F
:100B8A00EC010E94EC050E94EB05CE010E94ED05E6
:060B9A00CE010E94E905F6
:100BA0009C01215431092A31310508F480620895ED
:0C0BB0001092610013BE15BE80E0089595
:0A0BBC000E94EF0480E090E008952D
:080BC60013BE15BE80E0089586
:040BCE000C94000083
:040BD2000E946B0012
:020BD600089580
:020BD80008957E
:020BDA0008957C
:100BDC0003000000000000000000000000DE050023
:010BEC000008
:020BED001D01E8
:02000004008278
:0300000042DF07D5
:00000001FF
